:020000040800F2
:10000000600600206D0100087501000877010008F6
:10001000790100087B0100087D0100080000000054
:100020000000000000000000000000007F01000848
:10003000810100080000000083010008850100081C
:100040008701000887010008870100088701000870
:100050008701000887010008870100088701000860
:100060008701000887010008870100088701000850
:100070008701000887010008870100088701000840
:100080008701000887010008870100088701000830
:100090008701000887010008870100088701000820
:1000A0008701000887010008870100088701000810
:1000B0008701000887010008870100088701000800
:1000C00087010008870100088701000887010008F0
:1000D00087010008870100088701000887010008E0
:1000E00087010008870100088701000800F002F876
:1000F00000F02CF80AA090E8000C82448344AAF196
:100100000107DA4501D100F021F8AFF2090EBAE893
:100110000F0013F0010F18BFFB1A43F0010318473B
:10012000C4080000D4080000002300240025002695
:10013000103A28BF78C1FBD8520728BF30C148BF4A
:100140000B6070471FB51FBD10B510BD00F031F832
:100150001146FFF7F7FF00F0E5FB00F04FF803B49E
:10016000FFF7F2FF03BC00F057F800000948804792
:1001700009480047FEE7FEE7FEE7FEE7FEE7FEE789
:10018000FEE7FEE7FEE7FEE704480549054A064BA1
:1001900070470000B5060008ED0000086000002070
:1001A0006006002060020020600200207047704757
:1001B0007047754600F02CF8AE4605006946534678
:1001C00020F00700854618B020B5FFF7DDFFBDE839
:1001D00020404FF000064FF000074FF000084FF0AE
:1001E000000BAC46ACE8C009ACE8C009ACE8C009FB
:1001F000ACE8C00921F007018D46704710B50446F0
:10020000AFF300802046BDE81040FFF7A8BF000014
:10021000004870470000002001491820ABBEFEE7EF
:10022000260002007047000080B582B0019001985E
:100230000068012100F07CF80020009001984068DF
:10024000062832D8FFE7019801684268806892006A
:1002500000FA02F20868104308600198C06860B9AB
:10026000FFE70198016840688000821C012000FAC5
:1002700002F208689043086016E00198016840683F
:100280008000821C012000FA02F208689043086096
:10029000019801684268C0689200023200FA02F2D6
:1002A000086810430860FFE740E0019840680F28A5
:1002B0003BD8FFE701984068082836D3FFE701984C
:1002C000406808380090019801688068009A9200A0
:1002D00000FA02F24868104348600198C06860B9AB
:1002E000FFE700988000811C032000FA01F20198CA
:1002F000016848689043486016E000988000811CBF
:10030000032000FA01F201980168486890434860B0
:1003100001980168C068009A9200023200FA02F265
:10032000486810434860FFE7FFE7FFE702B080BD81
:1003300082B001908DF803109DF80300012848D188
:10034000FFE7019840F60001C4F20101884209D19B
:10035000FFE741F21801C4F20201086840F004000E
:10036000086035E0019840F60041C4F2010188427E
:1003700009D1FFE741F21801C4F20201086840F018
:100380000800086023E0019841F20001C4F2010175
:10039000884209D1FFE741F21801C4F2020108685E
:1003A00040F01000086011E0019841F20041C4F2F1
:1003B0000101884209D1FFE741F21801C4F20201AC
:1003C000086840F020000860FFE7FFE7FFE7FFE76D
:1003D0004DE09DF80300002848D1FFE7019840F662
:1003E0000001C4F20101884209D1FFE741F218017E
:1003F000C4F20201086820F00400086035E00198AA
:1004000040F60041C4F20101884209D1FFE741F200
:100410001801C4F20201086820F00800086023E017
:10042000019841F20001C4F20101884209D1FFE7BD
:1004300041F21801C4F20201086820F010000860BF
:1004400011E0019841F20041C4F20101884209D152
:10045000FFE741F21801C4F20201086820F0200011
:100460000860FFE7FFE7FFE7FFE7FFE7FFE702B00E
:100470007047000082B001908DF803108DF80220C3
:100480009DF8020001280AD1FFE79DF80310012022
:1004900000FA01F20199C8681043C860FFE79DF8AF
:1004A000020050B9FFE79DF80310012000FA01F2A5
:1004B0000199C8689043C860FFE702B07047000028
:1004C00041F21C01C4F20201086840F0805008604B
:1004D000086840F00060086047F20001C4F20001C3
:1004E000086840F48070086041F22401C4F20201FF
:1004F000086840F001000860FFE741F22400C4F200
:1005000002000068002008B1FFE7F6E741F2200191
:10051000C4F20201086840F402400860FFE742F6B6
:100520000400C4F200000088002008B1FFE7F6E7ED
:10053000FFE742F60400C4F200000088002008B182
:10054000FFE7F6E742F60001C4F20001088840F038
:1005500001000880FFE742F60400C4F200000088B2
:10056000002008B1FFE7F6E742F61C01C4F20001E3
:100570004AF6CD30088042F60C01C4F2000147F67D
:10058000FF7008807047000080B500F001F880BD62
:1005900084B000200390029041F20001C4F20201F5
:1005A000086840F480300860FFE741F20000C4F2C0
:1005B0000200006800F400300290039801300390BC
:1005C000FFE702990020019039B9FFE70398B0F5E1
:1005D000A06018BF01200190FFE70198C007002824
:1005E000E3D1FFE741F20000C4F20200006880039B
:1005F000002803D5FFE70120029002E000200290CE
:10060000FFE70298012851D1FFE742F20001C4F24E
:100610000201086840F010000860086820F0070038
:100620000860086840F00200086041F20401C4F26A
:10063000020100910868086008680860086840F4D2
:1006400080600860086820F47C100860086840F446
:10065000E810086041F20001C4F20201086840F0AD
:1006600080700860FFE741F20000C4F202000068F9
:100670008001002801D4FFE7F5E741F20401C4F24C
:100680000201086820F003000860086840F00200DA
:100690000860FFE741F20400C4F20200006800F0C5
:1006A0000C00082801D0FFE7F4E700E0FFE704B002
:1006B0007047000080B541F20002C4F202021068E7
:1006C00040F00100106041F20401C4F20201086828
:1006D0000023CFF6FF031840086010684FF6FF7341
:1006E000CFF6F66318401060106820F48020106088
:1006F000086820F4FE00086041F20801C4F202011B
:100700004FF41F000860FFF73FFF4EF60851CEF28E
:1007100000014FF00060086080BD000080B501203E
:1007200000F0E0F8022000F00BF980BD80B582B047
:100730000220019000F0D6F8019800F001F902B013
:1007400080BD000080B582B041F20000C4F201001B
:1007500000900F2101910122FFF78CFE0A2000F08A
:1007600003F9009801990022FFF784FE642000F04D
:10077000FBF802B080BD000080B590B041F20000EF
:10078000C4F2010006900C90032008900E900D20FA
:1007900005900D90002007900F9040F60000C4F2E5
:1007A0000100049001210391FFF7C2FD039906980F
:1007B000FFF7BEFD0CA80190FFF736FD01980E2152
:1007C0000B910D91FFF730FD01980F2102910D91D2
:1007D000FFF72AFD0198049A08990C920D91FFF7F2
:1007E00023FD0198022109910D91FFF71DFD01984C
:1007F00003990D91FFF718FD019807990D91FFF7E7
:1008000013FD05990698079AFFF734FE0698079A94
:100810000B99FFF72FFE02990698079AFFF72AFE19
:100820000498079A0899FFF725FE0498079A0999F2
:10083000FFF720FE03990498079AFFF71BFE049820
:10084000079A1146FFF716FE28200A9000F078F864
:1008500005990698079AFFF70DFE0698079A0B99D7
:10086000FFF708FE089800F091F8052000F068F8FE
:10087000089800F08BF8962000F076F8089800F0C1
:1008800085F8099800F082F80A9800F02BF80B9888
:1008900000F028F8FFF742FF062000F023F810B020
:1008A00080BD000080B582B08DF8070041F20000E5
:1008B000C4F2010000900D210122FFF7DBFD00983A
:1008C0000E210022FFF7D6FD9DF80700000900F079
:1008D0005DF89DF8070000F00F0000F057F802B037
:1008E00080BD000080B584B08DF80F0041F200009B
:1008F000C4F2010001900D2100220292FFF7BAFD1F
:100900000198029A0E21FFF7B5FD9DF80F0000092E
:1009100000F03CF89DF80F0000F00F0000F036F8F2
:1009200004B080BD80B5FFF727FFFFF7C9FDFFF7D3
:10093000F5FEFFF7FBFE3120FFF7B4FF002080BD7E
:1009400082B0019000200090FFE7009801994FF4D9
:100950007A725143884205D2FFE7FFE700980130E1
:100960000090F2E702B0704782B001900020009042
:10097000FFE700980199884205D2FFE7FFE700985A
:1009800001300090F5E702B07047000080B582B0FA
:100990008DF807009DF8070000F0010240F6000006
:1009A000C4F2010000900321FFF764FD00989DF858
:1009B0000710C1F340020221FFF75CFD00989DF88B
:1009C0000710C1F380020121FFF754FD00989DF844
:1009D0000710C1F3C0020021FFF74CFDFFF7B2FE84
:1009E00002B080BDF409000800000020600600008D
:0409F00028010008D2
:040000050800016D81
:00000001FF
